{
  "contractName": "MagicSquare",
  "abi": [
    {
      "inputs": [
        {
          "internalType": "uint256",
          "name": "_n",
          "type": "uint256"
        }
      ],
      "name": "generateMagicSquare",
      "outputs": [],
      "stateMutability": "nonpayable",
      "type": "function"
    },
    {
      "inputs": [],
      "name": "getSquare",
      "outputs": [
        {
          "components": [
            {
              "internalType": "uint256[][]",
              "name": "rows",
              "type": "uint256[][]"
            },
            {
              "internalType": "uint256",
              "name": "n",
              "type": "uint256"
            }
          ],
          "internalType": "struct SquareLib.MagicSquare",
          "name": "",
          "type": "tuple"
        }
      ],
      "stateMutability": "view",
      "type": "function",
      "constant": true
    },
    {
      "inputs": [
        {
          "components": [
            {
              "internalType": "uint256[][]",
              "name": "rows",
              "type": "uint256[][]"
            },
            {
              "internalType": "uint256",
              "name": "n",
              "type": "uint256"
            }
          ],
          "internalType": "struct SquareLib.MagicSquare",
          "name": "square",
          "type": "tuple"
        }
      ],
      "name": "save",
      "outputs": [],
      "stateMutability": "nonpayable",
      "type": "function"
    }
  ],
  "bytecode": "0x608060405234801561001057600080fd5b50610b3c806100206000396000f3fe608060405234801561001057600080fd5b50600436106100415760003560e01c80638b213ffc146100465780638dbbe62514610062578063f117a19314610080575b600080fd5b610060600480360381019061005b91906107b4565b61009c565b005b61006a6101c9565b60405161007791906109b9565b60405180910390f35b61009a60048036038101906100959190610836565b61028c565b005b806020015160006001018190555060005b81602001518110156101c557816020015167ffffffffffffffff811180156100d457600080fd5b506040519080825280602002602001820160405280156101035781602001602082028036833780820191505090505b5060008001828154811061011357fe5b906000526020600020019080519060200190610130929190610450565b5060005b82602001518110156101b75760008001828154811061014f57fe5b906000526020600020018360000151838151811061016957fe5b6020026020010151828151811061017c57fe5b602002602001015190806001815401808255809150506001900390600052602060002001600090919091909150558080600101915050610134565b5080806001019150506100ad565b5050565b6101d161049d565b600060405180604001604052908160008201805480602002602001604051908101604052809291908181526020016000905b828210156102755783829060005260206000200180548060200260200160405190810160405280929190818152602001828054801561026157602002820191906000526020600020905b81548152602001906001019080831161024d575b505050505081526020019060010190610203565b505050508152602001600182015481525050905090565b61029461049d565b73__SquareLib_____________________________63fe4b84df836040518263ffffffff1660e01b81526004016102cb91906109db565b60006040518083038186803b1580156102e357600080fd5b505af41580156102f7573d6000803e3d6000fd5b505050506040513d6000823e3d601f19601f8201168201806040525081019061032091906107f5565b90506000806002848161032f57fe5b0490506000600190505b84850281116103695761035983838387610379909392919063ffffffff16565b5050508080600101915050610339565b506103738361009c565b50505050565b6000806000808760000151878151811061038f57fe5b602002602001015186815181106103a257fe5b6020026020010151146103e657866020015160028701816103bf57fe5b069250866020015160018689602001510103816103d857fe5b069150600184039050610446565b83876000015187815181106103f757fe5b6020026020010151868151811061040a57fe5b6020026020010181815250508660200151600187896020015101038161042c57fe5b0692508660200151600186018161043f57fe5b0691508390505b9450945094915050565b82805482825590600052602060002090810192821561048c579160200282015b8281111561048b578251825591602001919060010190610470565b5b50905061049991906104b7565b5090565b604051806040016040528060608152602001600081525090565b5b808211156104d05760008160009055506001016104b8565b5090565b600082601f8301126104e557600080fd5b81356104f86104f382610a23565b6109f6565b9150818183526020840193506020810190508360005b8381101561053e578135860161052488826105bc565b84526020840193506020830192505060018101905061050e565b5050505092915050565b600082601f83011261055957600080fd5b815161056c61056782610a23565b6109f6565b9150818183526020840193506020810190508360005b838110156105b25781518601610598888261063f565b845260208401935060208301925050600181019050610582565b5050505092915050565b600082601f8301126105cd57600080fd5b81356105e06105db82610a4b565b6109f6565b9150818183526020840193506020810190508385602084028201111561060557600080fd5b60005b83811015610635578161061b888261078a565b845260208401935060208301925050600181019050610608565b5050505092915050565b600082601f83011261065057600080fd5b815161066361065e82610a4b565b6109f6565b9150818183526020840193506020810190508385602084028201111561068857600080fd5b60005b838110156106b8578161069e888261079f565b84526020840193506020830192505060018101905061068b565b5050505092915050565b6000604082840312156106d457600080fd5b6106de60406109f6565b9050600082013567ffffffffffffffff8111156106fa57600080fd5b610706848285016104d4565b600083015250602061071a8482850161078a565b60208301525092915050565b60006040828403121561073857600080fd5b61074260406109f6565b9050600082015167ffffffffffffffff81111561075e57600080fd5b61076a84828501610548565b600083015250602061077e8482850161079f565b60208301525092915050565b60008135905061079981610aef565b92915050565b6000815190506107ae81610aef565b92915050565b6000602082840312156107c657600080fd5b600082013567ffffffffffffffff8111156107e057600080fd5b6107ec848285016106c2565b91505092915050565b60006020828403121561080757600080fd5b600082015167ffffffffffffffff81111561082157600080fd5b61082d84828501610726565b91505092915050565b60006020828403121561084857600080fd5b60006108568482850161078a565b91505092915050565b600061086b8383610900565b905092915050565b600061087f838361099b565b60208301905092915050565b600061089682610a93565b6108a08185610ac3565b9350836020820285016108b285610a73565b8060005b858110156108ee57848403895281516108cf858261085f565b94506108da83610aa9565b925060208a019950506001810190506108b6565b50829750879550505050505092915050565b600061090b82610a9e565b6109158185610ad4565b935061092083610a83565b8060005b838110156109515781516109388882610873565b975061094383610ab6565b925050600181019050610924565b5085935050505092915050565b6000604083016000830151848203600086015261097b828261088b565b9150506020830151610990602086018261099b565b508091505092915050565b6109a481610ae5565b82525050565b6109b381610ae5565b82525050565b600060208201905081810360008301526109d3818461095e565b905092915050565b60006020820190506109f060008301846109aa565b92915050565b6000604051905081810181811067ffffffffffffffff82111715610a1957600080fd5b8060405250919050565b600067ffffffffffffffff821115610a3a57600080fd5b602082029050602081019050919050565b600067ffffffffffffffff821115610a6257600080fd5b602082029050602081019050919050565b6000819050602082019050919050565b6000819050602082019050919050565b600081519050919050565b600081519050919050565b6000602082019050919050565b6000602082019050919050565b600082825260208201905092915050565b600082825260208201905092915050565b6000819050919050565b610af881610ae5565b8114610b0357600080fd5b5056fea26469706673582212201c1c22d36b8fdf9ddb1921c4349de8deb3b3938716bf8ba6d61e0f2fe282123c64736f6c63430007010033",
  "immutableReferences": {},
  "source": "// SPDX-License-Identifier: MIT\n\npragma solidity ^0.7.1;\npragma experimental ABIEncoderV2;\n\nimport \"./SquareLib.sol\";\n\ncontract MagicSquare {\n    \n    using SquareLib for SquareLib.MagicSquare;\n\n    SquareLib.MagicSquare storedSquare;\n\n    function generateMagicSquare(uint _n) public {\n        SquareLib.MagicSquare memory square;\n        square = SquareLib.initialize(_n);\n\n        uint _x = 0;\n        uint _y = _n / 2;\n        for(uint _i = 1 ; _i <= _n * _n ; _i++) {\n            square.step(_x , _y , _i );\n        }\n        save(square);\n    }\n\n    function getSquare() public view returns (SquareLib.MagicSquare memory) {\n        return storedSquare;\n    }\n\n    function save(SquareLib.MagicSquare memory square) public {\n        storedSquare.n = square.n;\n        for (uint _i = 0 ; _i < square.n ; _i++) {\n            storedSquare.rows[_i] = new uint[](square.n);\n\n            for(uint _j = 0 ; _j < square.n ; _j++) {\n                storedSquare.rows[_i].push(square.rows[_i][_j]);\n            }\n        }\n    }\n}",
  "sourcePath": "/Users/dhruvin/gbc/bcdv-1010/solidity-magic-square/contracts/MagicSquare.sol",
  "compiler": {
    "name": "solc",
    "version": "0.7.1+commit.f4a555be.Emscripten.clang"
  },
  "schemaVersion": "3.3.3",
  "updatedAt": "2021-01-27T02:58:07.111Z",
  "networkType": "ethereum",
  "devdoc": {
    "kind": "dev",
    "methods": {},
    "version": 1
  },
  "userdoc": {
    "kind": "user",
    "methods": {},
    "version": 1
  }
}