{
  "contractName": "SquareLib",
  "abi": [
    {
      "inputs": [
        {
          "internalType": "uint256",
          "name": "_n",
          "type": "uint256"
        }
      ],
      "name": "initialize",
      "outputs": [
        {
          "components": [
            {
              "internalType": "uint256[][]",
              "name": "rows",
              "type": "uint256[][]"
            },
            {
              "internalType": "uint256",
              "name": "n",
              "type": "uint256"
            }
          ],
          "internalType": "struct SquareLib.MagicSquare",
          "name": "square",
          "type": "tuple"
        }
      ],
      "stateMutability": "pure",
      "type": "function",
      "constant": true
    }
  ],
  "bytecode": "0x6103e2610026600b82828239805160001a60731461001957fe5b30600052607381538281f3fe73000000000000000000000000000000000000000030146080604052600436106100355760003560e01c8063fe4b84df1461003a575b600080fd5b610054600480360381019061004f9190610183565b61006a565b60405161006191906102f7565b60405180910390f35b610072610154565b60405180604001604052808367ffffffffffffffff8111801561009457600080fd5b506040519080825280602002602001820160405280156100c857816020015b60608152602001906001900390816100b35790505b50815260200183815250905060005b8281101561014e578267ffffffffffffffff811180156100f657600080fd5b506040519080825280602002602001820160405280156101255781602001602082028036833780820191505090505b508260000151828151811061013657fe5b602002602001018190525080806001019150506100d7565b50919050565b604051806040016040528060608152602001600081525090565b60008135905061017d81610395565b92915050565b60006020828403121561019557600080fd5b60006101a38482850161016e565b91505092915050565b60006101b8838361024d565b905092915050565b60006101cc83836102e8565b60208301905092915050565b60006101e382610339565b6101ed8185610369565b9350836020820285016101ff85610319565b8060005b8581101561023b578484038952815161021c85826101ac565b94506102278361034f565b925060208a01995050600181019050610203565b50829750879550505050505092915050565b600061025882610344565b610262818561037a565b935061026d83610329565b8060005b8381101561029e57815161028588826101c0565b97506102908361035c565b925050600181019050610271565b5085935050505092915050565b600060408301600083015184820360008601526102c882826101d8565b91505060208301516102dd60208601826102e8565b508091505092915050565b6102f18161038b565b82525050565b6000602082019050818103600083015261031181846102ab565b905092915050565b6000819050602082019050919050565b6000819050602082019050919050565b600081519050919050565b600081519050919050565b6000602082019050919050565b6000602082019050919050565b600082825260208201905092915050565b600082825260208201905092915050565b6000819050919050565b61039e8161038b565b81146103a957600080fd5b5056fea2646970667358221220f9de7bf73d7eaeb71b4f0b7809e8cea8bed6f8fd21df5cdb56e7c00edf9a4aa764736f6c63430007010033",
  "immutableReferences": {},
  "source": "// SPDX-License-Identifier: MIT\n\npragma solidity ^0.7.1;\npragma experimental ABIEncoderV2;\n\nlibrary SquareLib {\n    struct MagicSquare {\n        uint256[][] rows;\n        uint256 n;\n    }\n\n    function initialize(uint256 _n)\n        external\n        pure\n        returns (MagicSquare memory square)\n    {\n        square = MagicSquare({rows: new uint256[][](_n), n: _n});\n        for (uint256 _i = 0; _i < _n; _i++) {\n            square.rows[_i] = new uint256[](_n); // initialize each row with _n number of columns\n        }\n    }\n\n    function step(\n        MagicSquare memory square,\n        uint256 _x,\n        uint256 _y,\n        uint256 _i\n    )\n        internal\n        pure\n        returns (\n            uint256 _newX,\n            uint256 _newY,\n            uint256 _newI\n        )\n    {\n        if (square.rows[_x][_y] != 0) {\n            _newX = (_x + 2) % square.n;\n            _newY = (square.n + _y - 1) % square.n;\n            _newI = _i - 1;\n        } else {\n            square.rows[_x][_y] = _i;\n            _newX = (square.n + _x - 1) % square.n;\n            _newY = (_y + 1) % square.n;\n            _newI = _i;\n        }\n    }\n}\n",
  "sourcePath": "/Users/dhruvin/gbc/bcdv-1010/solidity-magic-square/contracts/SquareLib.sol",
  "compiler": {
    "name": "solc",
    "version": "0.7.1+commit.f4a555be.Emscripten.clang"
  },
  "schemaVersion": "3.3.3",
  "updatedAt": "2021-01-27T02:58:07.109Z",
  "networkType": "ethereum",
  "devdoc": {
    "kind": "dev",
    "methods": {},
    "version": 1
  },
  "userdoc": {
    "kind": "user",
    "methods": {},
    "version": 1
  }
}