{
  "contractName": "DocStamp",
  "abi": [
    {
      "anonymous": false,
      "inputs": [
        {
          "indexed": true,
          "internalType": "bytes32",
          "name": "record",
          "type": "bytes32"
        },
        {
          "indexed": true,
          "internalType": "uint256",
          "name": "timestamp",
          "type": "uint256"
        },
        {
          "indexed": true,
          "internalType": "bool",
          "name": "returnValue",
          "type": "bool"
        }
      ],
      "name": "CertificateIssued",
      "type": "event"
    },
    {
      "anonymous": false,
      "inputs": [
        {
          "indexed": true,
          "internalType": "address",
          "name": "previousOwner",
          "type": "address"
        },
        {
          "indexed": true,
          "internalType": "address",
          "name": "newOwner",
          "type": "address"
        }
      ],
      "name": "OwnershipTransferred",
      "type": "event"
    },
    {
      "inputs": [],
      "name": "owner",
      "outputs": [
        {
          "internalType": "address",
          "name": "",
          "type": "address"
        }
      ],
      "stateMutability": "view",
      "type": "function",
      "constant": true
    },
    {
      "inputs": [
        {
          "internalType": "bytes32",
          "name": "",
          "type": "bytes32"
        }
      ],
      "name": "records",
      "outputs": [
        {
          "internalType": "address",
          "name": "",
          "type": "address"
        }
      ],
      "stateMutability": "view",
      "type": "function",
      "constant": true
    },
    {
      "inputs": [],
      "name": "renounceOwnership",
      "outputs": [],
      "stateMutability": "nonpayable",
      "type": "function"
    },
    {
      "inputs": [
        {
          "internalType": "address",
          "name": "newOwner",
          "type": "address"
        }
      ],
      "name": "transferOwnership",
      "outputs": [],
      "stateMutability": "nonpayable",
      "type": "function"
    },
    {
      "inputs": [
        {
          "internalType": "string",
          "name": "name",
          "type": "string"
        },
        {
          "internalType": "string",
          "name": "details",
          "type": "string"
        }
      ],
      "name": "issueCertificate",
      "outputs": [],
      "stateMutability": "nonpayable",
      "type": "function"
    },
    {
      "inputs": [
        {
          "internalType": "string",
          "name": "name",
          "type": "string"
        },
        {
          "internalType": "string",
          "name": "details",
          "type": "string"
        },
        {
          "internalType": "bytes32",
          "name": "certificate",
          "type": "bytes32"
        }
      ],
      "name": "verifyCertificate",
      "outputs": [
        {
          "internalType": "bool",
          "name": "",
          "type": "bool"
        }
      ],
      "stateMutability": "view",
      "type": "function",
      "constant": true
    }
  ],
  "bytecode": "0x608060405234801561001057600080fd5b5060006100216100c460201b60201c565b9050806000806101000a81548173ffffffffffffffffffffffffffffffffffffffff021916908373ffffffffffffffffffffffffffffffffffffffff1602179055508073ffffffffffffffffffffffffffffffffffffffff16600073ffffffffffffffffffffffffffffffffffffffff167f8be0079c531659141344cd1fd0a4f28419497f9722a3daafe3b4186f6b6457e060405160405180910390a3506100cc565b600033905090565b610c15806100db6000396000f3fe608060405234801561001057600080fd5b50600436106100625760003560e01c806301e6472514610067578063211bbe7114610097578063715018a6146100b35780638da5cb5b146100bd578063a090e4c4146100db578063f2fde38b1461010b575b600080fd5b610081600480360381019061007c9190610743565b610127565b60405161008e9190610948565b60405180910390f35b6100b160048036038101906100ac919061076c565b61015a565b005b6100bb6102bd565b005b6100c56103f7565b6040516100d29190610948565b60405180910390f35b6100f560048036038101906100f091906107d8565b610420565b6040516101029190610963565b60405180910390f35b6101256004803603810190610120919061071a565b6104d7565b005b60016020528060005260406000206000915054906101000a900473ffffffffffffffffffffffffffffffffffffffff1681565b610162610680565b73ffffffffffffffffffffffffffffffffffffffff166101806103f7565b73ffffffffffffffffffffffffffffffffffffffff16146101d6576040517f08c379a00000000000000000000000000000000000000000000000000000000081526004016101cd9061099e565b60405180910390fd5b600082826040516020016101eb92919061090f565b60405160208183030381529060405280519060200120905060405160200161021290610933565b6040516020818303038152906040528051906020012081141561023457600080fd5b336001600083815260200190815260200160002060006101000a81548173ffffffffffffffffffffffffffffffffffffffff021916908373ffffffffffffffffffffffffffffffffffffffff1602179055506001151542827fe2f856eb4bdb96dc07c8658ff6dc2faa0cba255b51e9af05a293fc28d74bd8ac60405160405180910390a4505050565b6102c5610680565b73ffffffffffffffffffffffffffffffffffffffff166102e36103f7565b73ffffffffffffffffffffffffffffffffffffffff1614610339576040517f08c379a00000000000000000000000000000000000000000000000000000000081526004016103309061099e565b60405180910390fd5b600073ffffffffffffffffffffffffffffffffffffffff1660008054906101000a900473ffffffffffffffffffffffffffffffffffffffff1673ffffffffffffffffffffffffffffffffffffffff167f8be0079c531659141344cd1fd0a4f28419497f9722a3daafe3b4186f6b6457e060405160405180910390a360008060006101000a81548173ffffffffffffffffffffffffffffffffffffffff021916908373ffffffffffffffffffffffffffffffffffffffff160217905550565b60008060009054906101000a900473ffffffffffffffffffffffffffffffffffffffff16905090565b600080848460405160200161043692919061090f565b60405160208183030381529060405280519060200120905082811480156104bb57503373ffffffffffffffffffffffffffffffffffffffff166001600085815260200190815260200160002060009054906101000a900473ffffffffffffffffffffffffffffffffffffffff1673ffffffffffffffffffffffffffffffffffffffff16145b156104ca5760019150506104d0565b60009150505b9392505050565b6104df610680565b73ffffffffffffffffffffffffffffffffffffffff166104fd6103f7565b73ffffffffffffffffffffffffffffffffffffffff1614610553576040517f08c379a000000000000000000000000000000000000000000000000000000000815260040161054a9061099e565b60405180910390fd5b600073ffffffffffffffffffffffffffffffffffffffff168173ffffffffffffffffffffffffffffffffffffffff1614156105c3576040517f08c379a00000000000000000000000000000000000000000000000000000000081526004016105ba9061097e565b60405180910390fd5b8073ffffffffffffffffffffffffffffffffffffffff1660008054906101000a900473ffffffffffffffffffffffffffffffffffffffff1673ffffffffffffffffffffffffffffffffffffffff167f8be0079c531659141344cd1fd0a4f28419497f9722a3daafe3b4186f6b6457e060405160405180910390a3806000806101000a81548173ffffffffffffffffffffffffffffffffffffffff021916908373ffffffffffffffffffffffffffffffffffffffff16021790555050565b600033905090565b600061069b610696846109e3565b6109be565b9050828152602081018484840111156106b357600080fd5b6106be848285610a83565b509392505050565b6000813590506106d581610bb1565b92915050565b6000813590506106ea81610bc8565b92915050565b600082601f83011261070157600080fd5b8135610711848260208601610688565b91505092915050565b60006020828403121561072c57600080fd5b600061073a848285016106c6565b91505092915050565b60006020828403121561075557600080fd5b6000610763848285016106db565b91505092915050565b6000806040838503121561077f57600080fd5b600083013567ffffffffffffffff81111561079957600080fd5b6107a5858286016106f0565b925050602083013567ffffffffffffffff8111156107c257600080fd5b6107ce858286016106f0565b9150509250929050565b6000806000606084860312156107ed57600080fd5b600084013567ffffffffffffffff81111561080757600080fd5b610813868287016106f0565b935050602084013567ffffffffffffffff81111561083057600080fd5b61083c868287016106f0565b925050604061084d868287016106db565b9150509250925092565b61086081610a3b565b82525050565b61086f81610a4d565b82525050565b600061088082610a14565b61088a8185610a30565b935061089a818560208601610a92565b80840191505092915050565b60006108b3602683610a1f565b91506108be82610b36565b604082019050919050565b60006108d6602083610a1f565b91506108e182610b85565b602082019050919050565b60006108f9600083610a30565b915061090482610bae565b600082019050919050565b600061091b8285610875565b91506109278284610875565b91508190509392505050565b600061093e826108ec565b9150819050919050565b600060208201905061095d6000830184610857565b92915050565b60006020820190506109786000830184610866565b92915050565b60006020820190508181036000830152610997816108a6565b9050919050565b600060208201905081810360008301526109b7816108c9565b9050919050565b60006109c86109d9565b90506109d48282610ac5565b919050565b6000604051905090565b600067ffffffffffffffff8211156109fe576109fd610af6565b5b610a0782610b25565b9050602081019050919050565b600081519050919050565b600082825260208201905092915050565b600081905092915050565b6000610a4682610a63565b9050919050565b60008115159050919050565b6000819050919050565b600073ffffffffffffffffffffffffffffffffffffffff82169050919050565b82818337600083830152505050565b60005b83811015610ab0578082015181840152602081019050610a95565b83811115610abf576000848401525b50505050565b610ace82610b25565b810181811067ffffffffffffffff82111715610aed57610aec610af6565b5b80604052505050565b7f4e487b7100000000000000000000000000000000000000000000000000000000600052604160045260246000fd5b6000601f19601f8301169050919050565b7f4f776e61626c653a206e6577206f776e657220697320746865207a65726f206160008201527f6464726573730000000000000000000000000000000000000000000000000000602082015250565b7f4f776e61626c653a2063616c6c6572206973206e6f7420746865206f776e6572600082015250565b50565b610bba81610a3b565b8114610bc557600080fd5b50565b610bd181610a59565b8114610bdc57600080fd5b5056fea2646970667358221220e1535e3fc19ffae05015e49414f64b2d2534c15753db60649d45d8dbbd17cb1464736f6c63430008040033",
  "immutableReferences": {},
  "source": "// SPDX-License-Identifier: MIT\n\npragma solidity ^0.8.4;\n\nimport \"@openzeppelin/contracts/access/Ownable.sol\";\n\ncontract DocStamp is Ownable {\n\n    mapping(bytes32 => address) public records;\n    event CertificateIssued(bytes32 indexed record, uint256 indexed timestamp, bool indexed returnValue);\n\n    function issueCertificate(string memory name, string memory details) external onlyOwner {\n        bytes32 certificate = keccak256(abi.encodePacked(name,details));\n        require(certificate != keccak256(abi.encodePacked(\"\")));\n        records[certificate] = msg.sender;\n        emit CertificateIssued(certificate, block.timestamp, true);\n    }\n\n    function verifyCertificate(string memory name, string memory details, bytes32 certificate) external view returns(bool) {\n        bytes32 testCertificate = keccak256(abi.encodePacked(name,details));\n        if (testCertificate == certificate && records[certificate] == msg.sender) {\n            return true;\n        }\n        return false;\n    }\n}",
  "sourcePath": "/Users/dhruvin/gbc/bcdv-1010/truffle-ethereum-certificate/contracts/DocStamp.sol",
  "compiler": {
    "name": "solc",
    "version": "0.8.4+commit.c7e474f2.Emscripten.clang"
  },
  "schemaVersion": "3.4.1",
  "updatedAt": "2021-05-26T00:48:17.554Z",
  "networkType": "ethereum",
  "devdoc": {
    "kind": "dev",
    "methods": {
      "owner()": {
        "details": "Returns the address of the current owner."
      },
      "renounceOwnership()": {
        "details": "Leaves the contract without owner. It will not be possible to call `onlyOwner` functions anymore. Can only be called by the current owner. NOTE: Renouncing ownership will leave the contract without an owner, thereby removing any functionality that is only available to the owner."
      },
      "transferOwnership(address)": {
        "details": "Transfers ownership of the contract to a new account (`newOwner`). Can only be called by the current owner."
      }
    },
    "version": 1
  },
  "userdoc": {
    "kind": "user",
    "methods": {},
    "version": 1
  }
}